S01F0000417474696E793136313420424D503339302053485432312E73726563B3
S11300000C943E000C9450000C9450000C9450003E
S11300100C9450000C9450000C9450000C9450001C
S11300200C9450000C9450000C9450000C9450000C
S11300300C9450000C9450000C9450000C945000FC
S11300400C9450000C9450000C9450000C945000EC
S11300500C9450000C9450000C9450000C945000DC
S11300600C9450000C9450000C9450000C945000CC
S11300700C9450000C9450000C94500011241FBE9A
S1130080CFEFCDBFDFE3DEBF28E3A0E0B8E301C0DC
S11300901D92AE30B207E1F70E94E9010C940F05FE
S11300A00C940000CF92DF92EF92FF92CF93DF93F4
S11300B0CDB7DEB7DA95CDBFDEBF20E0E2E2FAE8E5
S11300C0DE01119601900D922A95E1F7AB015527B7
S11300D0C72ED82EE92EFF2460E020E030E02CC0AB
S11300E0E1E0F0E0E61BF109EE0FFF1FEE0FFF1F4A
S11300F0EE0FFF1F8FEF90E00E2E02C0880F991FA6
S11301000A94E2F7092E000CAA0BBB0B8C219D214B
S1130110AE21BF2104C0B695A79597958795EA951A
S1130120D2F782279327E1E0F0E0EC0FFD1FE80F00
S1130130F91F208130E06F5F623090F22417350799
S113014011F081E001C080E0D395CDBFDEBFDF9127
S1130150CF91FF90EF90DF90CF90089588ED84BF0A
S1130160109261008091630080FDFCCFE0E2F4E036
S113017083E0818388E0808B818B0895E0E1F8E05F
S1130180108286E1868383E1838381E085830895F9
S1130190382F20E010C0932F990F960F90931708D3
S11301A09091150895FFFCCF90911508892F8071C7
S11301B094FF0AC02F5F233070F381E080930038EE
S11301C083E08093140881E00895909100389111A0
S11301D015C0809318088091150886FFFCCF809184
S11301E01508982F907184FD09C0862F817060FFD7
S11301F00CC083E080931408892F089582E08093D3
S1130200003883E08093140882E0089580911508F3
S113021085FFFCCFE0E1F8E01482808508958091A9
S1130220150885FFFCCFE0E1F8E084E08483808555
S113023008958091150885FFFCCFE0E1F8E0848102
S1130240836084839581892F807194FD81E0089572
S1130250CF93DF93D62FC42F60E00E94C80060E0E4
S11302608D2F0E94E50061E08C2F0E94E500DF9154
S1130270CF9108950F931F93CF93DF93182F062FD9
S1130280D0E020C060E0812F0E94C800C82F8111F7
S11302901DC061E0802F0E94E50061E0812F0E9473
S11302A0C800811114C00E940F01C82F0E941901B7
S11302B080FF05C082E080930038DF5F03C01092A6
S11302C0003805C0D330F0F2C0E001C0C0E08C2F8C
S11302D0DF91CF911F910F910895AF92BF92CF926A
S11302E0DF92EF92FF920F931F93CF93DF939FEFD1
S11302F0940F983008F052C0D42F162FC82F60E006
S11303000E94C80061E0812F0E94E50061E08C2F0B
S11303100E94C800C0E0A12CB12CC12CD12CE12C2E
S1130320F12C00E010E037C0EC2FF0E08D2F90E0CE
S11303300197E817F907B9F40E940F01282F30E05C
S113034040E050E060E070E080E090E00E9406054C
S1130350A22EB32EC42ED52EE62EF72E082F192F3B
S11303600E94190117C00E940601282F30E040E0C6
S113037050E060E070E080E090E00E94060508E054
S11303800E94ED04A22EB32EC42ED52EE62EF72EF7
S1130390082F192FCF5FCD1738F208C0A12CB12C2C
S11303A0C12CD12CE12CF12C00E010E02A2D3B2DA6
S11303B04C2D5D2D6E2D7F2D802F912FDF91CF91B0
S11303C01F910F91FF90EF90DF90CF90BF90AF906F
S11303D008950E94AE000E94BE000E940602E1E061
S11303E0F8E381E8828381E08183808383830E94B0
S11303F0290285EF0E943D0241E00E94ED0283EE56
S11304000E943D0240E00E94ED02F3CF67EE80E4DB
S11304100E943A01282F207430E0022E232F000C72
S1130420221F330B000C221F331FE1E0F8E3238368
S1130430282F227030E0359527952083982F9178C6
S11304409283847090E0959587959595879581839F
S11304500895E1E0F8E39281418180812381440F92
S1130460440F490F880F480F80E4289F400D112442
S113047066EE80E40E9428010895CF92DF92EF9205
S1130480FF92CF93C82F833E11F0853E51F443E091
S11304906C2F80E40E946D01622F732F842F952F9F
S11304A096C0833F19F0853F09F08DC060E080E479
S11304B00E94C80060E08C2F0E94E50025E82A9580
S11304C0F1F70000809103388038C1F0813819F0C9
S11304D08130D1F526C0C33F39F487ED96ED0197FD
S11304E0F1F700C0000045C09FE52AEE80E091507E
S11304F020408040E1F700C000003BC0C33F51F4FE
S11305009FED2FE982E0915020408040E1F700C048
S113051000002FC087EC9FEA0197F1F700C00000AC
S113052028C0C33F51F49FEB27E581E09150204060
S11305308040E1F700C000001CC08FE19EE40197F9
S1130540F1F700C0000015C0C33F51F49FE120E360
S113055085E0915020408040E1F700C0000009C0D0
S11305609FE125EC81E0915020408040E1F700C0FC
S1130570000061E080E40E94C800C0E0C12CD12CDE
S113058076011AC0C23069F40E940F01C80ED11C52
S1130590E11CF11C0E9419016C2D7D2D8E2D9F2DC7
S11305A016C00E940601C80ED11CE11CF11CFE2CD1
S11305B0ED2CDC2CCC24CF5FC33020F360E070E062
S11305C080E090E004C060E070E080E090E0CF91D3
S11305D0FF90EF90DF90CF900895CF92DF92EF924B
S11305E0FF92CF93DF93CDB7DEB7DA95CDBFDEBFF1
S11305F06B017C0180E0E2E2FBE8DE0111960190F0
S11306000D928A95E1F7413089F1E1E0F0E0EC0FD9
S1130610FD1FEE0DF11D6081E1E0F0E0EC0FFD1F28
S1130620ED0DF11D2081E1E0F0E0EC0FFD1FEC0D7C
S1130630F11D4081862F90E0A0E0B0E0DC01992715
S1130640882730E0322F2227820F931FA11DB11D6E
S1130650BC01CD01640F711D811D911D0E945200CA
S113066080FF04C081E080930D3845C099278F2D09
S11306707E2D6D2D61FF22C062507109810991099F
S11306800E94F20320E030E040E857E30E94800437
S113069020E030E04AEF52E40E94800420E030E0A1
S11306A040EC50E40E9485036093093870930A3843
S11306B080930B3890930C3880E01DC00E94F203A5
S11306C020E030E040E857E30E94800422E538EB64
S11306D04FE253E40E94800426E636E64BE352E4FC
S11306E00E94850360930538709306388093073819
S11306F09093083880E0D395CDBFDEBFDF91CF91D2
S1130700FF90EF90DF90CF9008955058BB27AA2711
S11307100E949D030C9446040E94380438F00E9401
S11307203F0420F039F49F3F19F426F40C94350467
S11307300EF4E095E7FB0C942F04E92F0E94570474
S113074058F3BA17620773078407950720F079F402
S1130750A6F50C9479040EF4E0950B2EBA2FA02D77
S11307600B01B90190010C01CA01A0011124FF275A
S1130770591B99F0593F50F4503E68F11A16F04055
S1130780A22F232F342F4427585FF3CF4695379554
S11307902795A795F0405395C9F77EF41F16BA0B19
S11307A0620B730B840BBAF09150A1F0FF0FBB1FC7
S11307B0661F771F881FC2F70EC0BA0F621F731F10
S11307C0841F48F4879577956795B795F7959E3F6D
S11307D008F0B0CF9395880F08F09927EE0F9795FE
S11307E087950895E89409C097FB3EF49095809509
S11307F0709561957F4F8F4F9F4F9923A9F0F92FE3
S113080096E9BB279395F695879577956795B79560
S1130810F111F8CFFAF4BB0F11F460FF1BC06F5F46
S11308207F4F8F4F9F4F16C0882311F096E911C058
S1130830772321F09EE8872F762F05C0662371F079
S113084096E8862F70E060E02AF09A95660F771F8D
S1130850881FDAF7880F9695879597F9089597F981
S11308609F6780E870E060E008959FEF80EC089552
S113087000240A941616170618060906089500247B
S11308800A9412161306140605060895092E0394F5
S1130890000C11F4882352F0BB0F40F4BF2B11F469
S11308A060FF04C06F5F7F4F8F4F9F4F089557FDC8
S11308B09058440F551F59F05F3F71F04795880FCA
S11308C097FB991F61F09F3F79F087950895121661
S11308D013061406551FF2CF4695F1DF08C016160D
S11308E017061806991FF1CF8695710561050894BE
S11308F00895E894BB2766277727CB0197F90895D5
S11309000E9493040C9446040E94380438F00E9418
S11309103F0420F0952311F00C942F040C9435041B
S113092011240C947A040E94570470F3959FC1F328
S1130930950F50E0551F629FF001729FBB27F00D89
S1130940B11D639FAA27F00DB11DAA1F649F6627DE
S1130950B00DA11D661F829F2227B00DA11D621F2D
S1130960739FB00DA11D621F839FA00D611D221FE7
S1130970749F3327A00D611D231F849F600D211DCB
S1130980822F762F6A2F11249F5750409AF0F1F04E
S113099088234AF0EE0FFF1FBB1F661F771F881FB7
S11309A091505040A9F79E3F510580F00C942F04BC
S11309B00C947A045F3FE4F3983ED4F386957795DC
S11309C06795B795F795E7959F5FC1F7FE2B880F5D
S11309D0911D9695879597F908950F93083090F097
S11309E0982F872F762F652F542F432F322F2227AE
S11309F00850F4CF220F331F441F551F661F771F63
S1130A00881F991F0A95B2F70F9108952A0D3B1D6F
S1130A104C1D5D1D6E1D7F1D801F911F0895F89450
S1050A20FFCF02
S1130A22005EBCE2613FDD83C29C7E20A3FD1F41C8
S1130A329DC3217FFCA2401E5F01E3BD3E6082DCB8
S1130A42237D9FC1421CFEA0E1BF5D0380DE3C62A8
S1130A52BEE0025CDF81633D7C22C09E1D43A1FF98
S1130A624618FAA427799BC584DA3866E5BB590788
S1130A72DB856739BAE406581947A5FB7826C49A78
S1130A82653BD987045AB8E6A7F91B45C6987A2468
S1130A92F8A6441A99C7257B3A6486D85B05E7B958
S1130AA28CD2306EEDB3510F4E10F2AC2F7193CD48
S1130AB2114FADF3702ECC92D38D6F31B2EC0E5038
S1130AC2AFF1134DCE90722C6D33D18F0C52B0EE28
S1130AD2326C8ED0530DEFB1F0AE4C1291CF2D7318
S1130AE2CA947628ABF517490856B4EA6937D58B08
S1130AF25709EBB536688AD495CB2977F4AA4816F8
S1130B02E9B7550B88D6346A2B7597C94A14F6A8E7
S1130B12742AC896154BA9F7B6E80A54D7896B35D7
S1130B22FF8040C020A060E0109050D030B070F040
S1130B32088848C828A868E8189858D838B878F8AF
S1130B42048444C424A464E4149454D434B474F4DF
S1130B520C8C4CCC2CAC6CEC1C9C5CDC3CBC7CFC4F
S1130B62028242C222A262E2129252D232B272F2DF
S1130B720A8A4ACA2AAA6AEA1A9A5ADA3ABA7AFA4F
S1130B82068646C626A666E6169656D636B676F67F
S1130B920E8E4ECE2EAE6EEE1E9E5EDE3EBE7EFEEF
S1130BA2018141C121A161E1119151D131B171F1AF
S1130BB2098949C929A969E9199959D939B979F91F
S1130BC2058545C525A565E5159555D535B575F54F
S1130BD20D8D4DCD2DAD6DED1D9D5DDD3DBD7DFDBF
S1130BE2038343C323A363E3139353D333B373F34F
S1130BF20B8B4BCB2BAB6BEB1B9B5BDB3BBB7BFBBF
S1130C02078747C727A767E7179757D737B777F7EE
S1130C120F8F4FCF2FAF6FEF1F9F5FDF3FBF7F005D
S9030000FC
